{
  "contractName": "SimpleStorage",
  "abi": [
    {
      "constant": false,
      "inputs": [
        {
          "name": "x",
          "type": "string"
        },
        {
          "name": "y",
          "type": "bool"
        }
      ],
      "name": "set",
      "outputs": [],
      "payable": false,
      "stateMutability": "nonpayable",
      "type": "function",
      "signature": "0xba0ff22c"
    },
    {
      "constant": true,
      "inputs": [],
      "name": "get",
      "outputs": [
        {
          "name": "",
          "type": "string"
        }
      ],
      "payable": false,
      "stateMutability": "view",
      "type": "function",
      "signature": "0x6d4ce63c"
    }
  ],
  "bytecode": "0x608060405260206040519081016040528060008152506000908051906020019061002a929190610058565b506000600160006101000a81548160ff02191690831515021790555034801561005257600080fd5b506100fd565b828054600181600116156101000203166002900490600052602060002090601f016020900481019282601f1061009957805160ff19168380011785556100c7565b828001600101855582156100c7579182015b828111156100c65782518255916020019190600101906100ab565b5b5090506100d491906100d8565b5090565b6100fa91905b808211156100f65760008160009055506001016100de565b5090565b90565b61035d8061010c6000396000f3fe60806040526004361061004c576000357c0100000000000000000000000000000000000000000000000000000000900463ffffffff1680636d4ce63c14610051578063ba0ff22c146100e1575b600080fd5b34801561005d57600080fd5b506100666101b5565b6040518080602001828103825283818151815260200191508051906020019080838360005b838110156100a657808201518184015260208101905061008b565b50505050905090810190601f1680156100d35780820380516001836020036101000a031916815260200191505b509250505060405180910390f35b3480156100ed57600080fd5b506101b36004803603604081101561010457600080fd5b810190808035906020019064010000000081111561012157600080fd5b82018360208201111561013357600080fd5b8035906020019184600183028401116401000000008311171561015557600080fd5b91908080601f016020809104026020016040519081016040528093929190818152602001838380828437600081840152601f19601f820116905080830192505050505050509192919290803515159060200190929190505050610257565b005b606060008054600181600116156101000203166002900480601f01602080910402602001604051908101604052809291908181526020018280546001816001161561010002031660029004801561024d5780601f106102225761010080835404028352916020019161024d565b820191906000526020600020905b81548152906001019060200180831161023057829003601f168201915b5050505050905090565b816000908051906020019061026d92919061028c565b5080600160006101000a81548160ff0219169083151502179055505050565b828054600181600116156101000203166002900490600052602060002090601f016020900481019282601f106102cd57805160ff19168380011785556102fb565b828001600101855582156102fb579182015b828111156102fa5782518255916020019190600101906102df565b5b509050610308919061030c565b5090565b61032e91905b8082111561032a576000816000905550600101610312565b5090565b9056fea165627a7a72305820a630b3977ce52a542cc7a79f9694b1768c95dd5e54627a4830b597b307ca43720029",
  "source": "pragma solidity ^0.5.0;\n\ncontract SimpleStorage {\n\n  string ipfsHash=\"\";\n  bool vid=false;\n\n  function set(string memory x, bool y) public {\n    ipfsHash= x;\n    vid=y;\n\n  }\n\n  function get() public view returns (string memory) {\n    return ipfsHash;\n  }\n}\n",
  "sourcePath": "/Users/atinchauhan/Desktop/p/contracts/SimpleStorage.sol",
  "compiler": {
    "name": "solc",
    "version": "0.5.0+commit.1d4f565a.Emscripten.clang"
  },
  "schemaVersion": "3.0.1",
  "updatedAt": "2019-04-18T13:48:09.496Z",
  "devdoc": {
    "methods": {}
  },
  "userdoc": {
    "methods": {}
  }
}